:060000000A128A11122809
:10000800FE00030EF0000408F1000A08F200831253
:1000180003137F08F3000A128A11552B0A128A115A
:1000280015288313203084003B300A128A1162237A
:1000380083010A128A11982AF801F9017908803A8D
:10004800FF0080307F02031D2B280130780203183F
:100058000800033083120313C7004708F400780828
:100068000A128A112A230A128A11203E8400831355
:10007800000883120313C800C901C809C909C80ABE
:100088000319C90A4808003EBB0049080318013E85
:10009800013EBC000330CA004A08F40078080A127E
:1000A8008A112A230A128A11203E84008313000829
:1000B80083120313CB00CC014B08BD004C08BE00D3
:1000C8007908C0007808BF000A128A11BB210A12F9
:1000D8008A11033083120313C7004708F400780815
:1000E8000A128A112A230A128A11013E203E84002C
:1000F8008313000883120313C800C901C809C9097A
:10010800C80A0319C90A4808003EBB004908031871
:10011800013E013EBC000330CA004A08F4007808DA
:100128000A128A112A230A128A11013E203E8400EB
:100138008313000883120313CB00CC014B08BD00C6
:100148004C08BE007808013EBF0079080318013E3C
:10015800003EC0000A128A11BB210A128A1103301C
:1001680083120313C7004708F40078080A128A119B
:100178002A230A128A11023E203E840083130008B3
:1001880083120313C800C901C809C909C80A031999
:10019800C90A4808003EBB0049080318013E013E51
:1001A800BC000330CA004A08F40078080A128A1111
:1001B8002A230A128A11023E203E84008313000873
:1001C80083120313CB00CC014B08BD004C08BE00C2
:1001D8007808023EBF0079080318013E003EC000BF
:1001E8000A128A11BB210A128A110330F807031870
:1001F800F90A0030F9072228831203134808F5008A
:100208004708F4000330F6000030F7000A128A119C
:10021800B9220A128A11750883120313D1007408CF
:10022800D0004908CC000330CD004D08F400470841
:100238000A128A112A230A128A11203E8400831284
:1002480003134C08831380004A08CC000330CD0008
:100258004D08F40047080A128A112A230A128A1143
:10026800013E203E8400831203134C088313800050
:100278004B08CC000330CD004D08F40047080A12A3
:100288008A112A230A128A11023E203E8400831210
:1002980003134C08831380004908CC00CD01CC0916
:1002A800CD09CC0A0319CD0A4C08003EBB004D0805
:1002B8000318013E013EBC004908CE00CF014E089C
:1002C800BD004F08BE005108C0005008BF000A1208
:1002D8008A11BB210A128A11831203134A08CC001F
:1002E800CD01CC09CD09CC0A0319CD0A4C08003E32
:1002F800BB004D080318013E013EBC004A08CE0071
:10030800CF014E08BD004F08BE005008013EBF0097
:1003180051080318013E003EC0000A128A11BB2191
:100328000A128A11831203134B08CC00CD01CC09A1
:10033800CD09CC0A0319CD0A4C08003EBB004D0874
:100348000318013E013EBC004B08CE00CF014E0809
:10035800BD004F08BE005008023EBF0051080318F8
:10036800013E003EC0000A128A11BB210800831218
:1003780003133B083C040319F7293F08C100410750
:10038800233E840083130008C200840A0008C300C7
:100398003D09C4003E09C500C40A0319C50A450839
:1003A800803AC6004308803A4602031DDD29420808
:1003B8004402031CF729831203133F08C1004107B5
:1003C800233E84003B0883138000840A3C08800095
:1003D8003F08333E84008001800A33300A128A11B4
:1003E8006D220A128A11831203133F08C1004107C4
:1003F800233E8400FF3083138007840F000803180E
:10040800000AFF00FF307F07800084030008C20055
:10041800840A0008C300420A031D0800430A031D9A
:1004280008003F08333E8400800133300A128A11E5
:100438006D2208000A128A11DA220A128A1183121E
:100448000313BD01BE013E08803AFF0080307F02E1
:10045800031D302A01303D02031808000330F9005B
:100468007908F400831203133D080A128A112A231B
:100478000A128A11203E8400831380010330F90098
:100488007908F400831203133D080A128A112A23FB
:100498000A128A11013E203E840083138001033032
:1004A800F9007908F400831203133D080A128A112F
:1004B8002A230A128A11023E203E840083138001F7
:1004C800013083120313BD070318BE0A0030BE07AC
:1004D800272AF500FB30F4007408831203138805FB
:1004E8000730F6000030F700F71B962AFE30F400BC
:1004F8007408880576087507F40074088400831367
:1005080000080319892A88148D2AFD30F40074081C
:1005180088050814FF30F6070318F70AFF30F707B5
:10052800F71F7A2A081508000A128A1117230A12D7
:100538008A11003083120313C700C800FF30D200AD
:100548005208C9006430D3005308CA00C830D40028
:100558005408CB000A128A1100210A128A110A12C1
:100568008A1120200A128A11B32AF801F901741C91
:10057800C32A7608F8070318F90A7708F90701303B
:100588000310F60DF70DFF3E031DC42A01300310BA
:10059800F50CF40CFF3E031DCB2A74087504031DEB
:1005A800BB2A7908F5007808F400080083120313C1
:1005B80088018316031388010030F400F500083021
:1005C800F6000030F70033300A128A11F9220A12B5
:1005D8008A110030F400F5000830F6000030F7000A
:1005E80023300A128A11F922080083120313BC006F
:1005F8003C08F8007808BB000130F6020030031C04
:10060800F703F702760A0319770A03190800740832
:10061800F8003B0884007808831380000130F80054
:100628007808BB07002B0A128A1148230A128A117C
:100638000A128A111E220A128A110A128A113B23EF
:100648000A128A110A128A116A230800F700F601B1
:10065800771C322B7408F5007508F6070310F40DA3
:100668000310F70C7708031D2C2B76080800831657
:10067800031381110730810481120B1183120313B4
:1006880081018B168B17080083160313071687152D
:100698003130930080309400283083120313940083
:1006A80008000B1181017308FF0072088A007108A5
:1006B8008400700E8300FE0E7E0E09006400800127
:1006C800840A0406031900340406632B83160313F3
:0406D8008815080079
:00000001FF
