:060000000A128A11122809
:10000800FE00030EF0000408F1000A08F200831253
:1000180003137F08F3000A128A15672F0A128A1140
:1000280015288313A0308400C4300A128A155F276C
:100038000A128A11831790308400F0300A128A1548
:100048005F2783010A128A119C2F83120313E1018F
:10005800E2016208803AFF0080307F02031D3628E3
:100068000C30610203180800033083120313DF0009
:100078005F08F40061080A128A158E270A128A118D
:10008800A03E8400831300080A128A15E2270A1288
:100098008A11831203132308AA002408AB00250839
:1000A800AC000030AD008030AE003F30AF000A1227
:1000B8008A1199250A128A11831203132A08D40077
:1000C8002B08D5002C08D6000330E0006008F400A7
:1000D80061080A128A158E270A128A11A03E840026
:1000E800831300080A128A15E2270A128A1183125A
:1000F80003132308AA002408AB002508AC0000302D
:10010800AD008030AE003F30AF000A128A11992549
:100118000A128A11831203132A08D7002B08D80061
:100128002C08D9006208DB006108DA000A128A117B
:10013800DE270A128A11033083120313DF005F08D7
:10014800F40061080A128A158E270A128A11013EE4
:10015800A03E8400831300080A128A15E2270A12B7
:100168008A11831203132308AA002408AB00250868
:10017800AC000030AD008030AE003F30AF000A1256
:100188008A1199250A128A11831203132A08D400A6
:100198002B08D5002C08D6000330E0006008F400D6
:1001A80061080A128A158E270A128A11013EA03E9A
:1001B8008400831300080A128A15E2270A128A119A
:1001C800831203132308AA002408AB002508AC00F7
:1001D8000030AD008030AE003F30AF000A128A1107
:1001E80099250A128A11831203132A08D7002B08AB
:1001F800D8002C08D9006108013EDA00620803180B
:10020800013E003EDB000A128A11DE270A128A111B
:10021800033083120313DF005F08F40061080A1239
:100228008A158E270A128A11023EA03E8400831383
:1002380000080A128A15E2270A128A118312031388
:100248002308AA002408AB002508AC000030AD0044
:100258008030AE003F30AF000A128A1199250A1289
:100268008A11831203132A08D4002B08D5002C08FE
:10027800D6000330E0006008F40061080A128A150D
:100288008E270A128A11023EA03E840083130008BA
:100298000A128A15E2270A128A1183120313230805
:1002A800AA002408AB002508AC000030AD0080305F
:1002B800AE003F30AF000A128A1199250A128A113E
:1002C800831203132A08D7002B08D8002C08D9005A
:1002D8006108023EDA0062080318013E003EDB00B6
:1002E8000A128A11DE270A128A11033083120313B5
:1002F800E1070318E20A0030E2072D2883120313EE
:100308006008F5005F08F4000330F6000030F700DD
:100318000A128A11BD270A128A117508831203135B
:10032800E7007408E6006108E4000330E5006508AA
:10033800F4005F080A128A158E270A128A11A03E55
:100348008400831203136408831380006208E400A6
:100358000330E5006508F4005F080A128A158E2745
:100368000A128A11013EA03E840083120313640816
:10037800831380006308E4000330E5006508F40097
:100388005F080A128A158E270A128A11023EA03EB9
:1003980084008312031364088313800061080A121F
:1003A8008A15E2270A128A11831203132308AA0066
:1003B8002408AB002508AC000030AD008030AE004A
:1003C8003F30AF000A128A1199250A128A11831246
:1003D80003132A08D4002B08D5002C08D60061087E
:1003E8000A128A15E2270A128A11831203132308B4
:1003F800AA002408AB002508AC000030AD0080300E
:10040800AE003F30AF000A128A1199250A128A11EC
:10041800831203132A08D7002B08D8002C08D90008
:100428006708DB006608DA000A128A11DE270A125A
:100438008A118312031362080A128A15E2270A1224
:100448008A11831203132308AA002408AB00250885
:10045800AC000030AD008030AE003F30AF000A1273
:100468008A1199250A128A11831203132A08D400C3
:100478002B08D5002C08D60062080A128A15E22734
:100488000A128A11831203132308AA002408AB0056
:100498002508AC000030AD008030AE003F30AF0022
:1004A8000A128A1199250A128A11831203132A083B
:1004B800D7002B08D8002C08D9006608013EDA00BE
:1004C80067080318013E003EDB000A128A11DE2786
:1004D8000A128A118312031363080A128A15E22783
:1004E8000A128A11831203132308AA002408AB00F6
:1004F8002508AC000030AD008030AE003F30AF00C2
:100508000A128A1199250A128A11831203132A08DA
:10051800D4002B08D5002C08D60063080A128A15C7
:10052800E2270A128A11831203132308AA00240857
:10053800AB002508AC000030AD008030AE003F3085
:10054800AF000A128A1199250A128A11831203131D
:100558002A08D7002B08D8002C08D9006608023EC4
:10056800DA0067080318013E003EDB000A128A1110
:10057800DE270800831203132308A9002408AA0011
:100588002508AB0003102A0D2B0DAC002C08AF007A
:100598002608A9002708AA002808AB0003102A0D7E
:1005A8002B0DAC002C08AE002F080319E72A2E08E3
:1005B8002F020318EE2A2F03FF3A2E07A90019303D
:1005C8002902031CEE2A2608A3002708A4002808ED
:1005D800A50008002E08031908002F082E0203188A
:1005E800FD2A2E03FF3A2F07A90019302902031804
:1005F80008000630A9002908AD00A51BAD17A81BE7
:100608002D17A417FF30A305FF30A4050030A5055A
:10061800A717FF30A605FF30A7050030A8052E084C
:100628002F0203183D2B01300310A60DA70DA80DAE
:10063800FF3E031D182B0130AE022E082F060319AA
:10064800382B0130AD022D0807390319382B172B29
:1006580001300310A50CA40CA30CFF3E031D2D2B89
:100668000130A9002908AF072F082E060319662BA9
:100678002C2B2F082E020318662B01300310A30D14
:10068800A40DA50DFF3E031D422B0130AF022E081D
:100698002F060319622B0130AD022D080739031903
:1006A800622B412B01300310A80CA70CA60CFF3EAF
:1006B800031D572B0130A9002908AE072F082E0665
:1006C800031D562BAD1F782BFF30A306FF30A40661
:1006D800FF30A5060130A307003003180130A40736
:1006E800003003180130A5072D1F8A2BFF30A606FE
:1006F800FF30A706FF30A8060130A6070030031810
:100708000130A707003003180130A807AD012308FE
:10071800A607240803110318240A031DA7072508A0
:1007280003110318250A031DA807A81FAD2BFF30C6
:10073800A606FF30A706FF30A8060130A60700303E
:1007480003180130A707003003180130A807AD01CE
:10075800AD0A2608F4002708F5002808F6002F0837
:10076800A9002908F7002D08AA002A08F8000A128B
:100778008A115126740883120313A3007508A40074
:100788007608A500080083120313D001D10151088F
:10079800803AC8004708803A4802031DD52B46080E
:1007A80050020318EE2B831203135008C8004807A1
:1007B8004507C9004908840083130008903E840057
:1007C80083178001800A0130D0070318D10A00304E
:1007D800D107CB2B90300A128A1171270A128A117D
:1007E800003083120313CA000030CB000030CC0065
:1007F8004A08B3004B08B4004C08B5000030A30009
:100808007A30A4004430A5003F08A6004008A7009D
:100818004108A8000A128A11C6240A128A118312F2
:1008280003132308B6002408B7002508B8000A12E5
:100838008A11C3260A128A110318472C073083121B
:100848000313C9007D30C800C80B282CC90B282CFD
:10085800003083120313A3008030A4003F30A500AA
:100868004A08A6004B08A7004C08A8000A128A11DB
:10087800BE220A128A11831203132308CA0024080D
:10088800CB002508FB2B83120313D201D301530895
:10089800803AC8004708803A4802031D552C46088C
:1008A800520203186D2C831203135208C80048071C
:1008B8004507C9004908840083130008903E840056
:1008C800831780010130D2070318D30A0030D307F9
:1008D8004B2C90300A128A1171270A128A110030A3
:1008E80083120313CD000030CE000030CF004D0836
:1008F800B3004E08B4004F08B5000030A3007A30AA
:10090800A4004430A5004208A6004308A7004408F4
:10091800A8000A128A11C6240A128A118312031324
:100928002308B6002408B7002508B8000A128A115F
:10093800C3260A128A11031808000730831203130A
:10094800C9007D30C800C80BA72CC90BA72C0030E4
:1009580083120313A3008030A4003F30A5004D0884
:10096800A6004E08A7004F08A8000A128A11BE2246
:100978000A128A11831203132308CD002408CE001B
:1009880025087A2C831203132308A9002408AA0037
:100998002508AB0003102A0D2B0DAC002C08AD0068
:1009A8002D08031DDE2C0030A3000030A400003009
:1009B800A50008002608A9002708AA002808AB00F7
:1009C80003102A0D2B0DAC002C08B2003208031DB1
:1009D800F42C0030A3000030A4000030A50008006B
:1009E80032087B3EA9002908AD072308A90024087E
:1009F800AA002508AB0010300310AB0CAA0CA90CF8
:100A0800FF3E031D002D2908AC002C08B200260863
:100A1800A9002708AA002808AB0010300310AB0C67
:100A2800AA0CA90CFF3E031D122D2908AC002C08A6
:100A3800B2068030A9002908B205A417A717FF300D
:100A4800A605FF30A7050030A8050030AE0000302D
:100A5800AF000030B0000730A9002908B100231CFE
:100A6800432D2608AE07270803110318270A031D7C
:100A7800AF07280803110318280A031DB00701301F
:100A88000310A50CA40CA30CFF3E031D442D01303C
:100A98000310A60DA70DA80DFF3E031D4C2D013018
:100AA800B102031D332D0930A9002908B100231C08
:100AB8006B2D2608AE07270803110318270A031D04
:100AC800AF07280803110318280A031DB0070130CF
:100AD8000310A50CA40CA30CFF3E031D6C2D0130C4
:100AE8000310B00CAF0CAE0CFF3E031D742D01308B
:100AF800B102031D5B2D2E08F4002F08F500300805
:100B0800F6002D08A9002908F7003208AA002A08CB
:100B1800F8000A128A115126740883120313A300DD
:100B28007508A4007608A5000800831203132D0891
:100B3800B0002E08B1002F08B2000310310D320D9D
:100B4800B3003308B8003808031DB12D0030AA00DF
:100B58000030AB000030AC0008002A08B0002B08B9
:100B6800B1002C08B2000310310D320DB300330868
:100B7800B9003908031DC72D0030AA000030AB00AA
:100B88000030AC0008000030B5000030B60000307E
:100B9800B70089303907B0003008B8022D08B00016
:100BA8002E08B1002F08B20010300310B20CB10C9F
:100BB800B00CFF3E031DD92D3008B3003308B9002F
:100BC8002A08B0002B08B1002C08B200103003101E
:100BD800B20CB10CB00CFF3E031DEB2D3008B30076
:100BE8003308B9068030B0003008B905AE17FF30B9
:100BF800AD05FF30AE050030AF05AB17FF30AA05D5
:100C0800FF30AB050030AC051830B0003008B40038
:100C180001300310B50DB60DB70DFF3E031D0D2EA7
:100C28002C082F02031D1E2E2B082E02031D1E2E1C
:100C38002A082D02031C2B2E2A08AD022B08031CA0
:100C48002B0FAE022C08031C2C0AAF0235140130FE
:100C58000310AD0DAE0DAF0DFF3E031D2C2E013060
:100C6800B402031D0C2E3508F4003608F5003708C9
:100C7800F6003808B0003008F7003908B10031082C
:100C8800F8000A128A115126740883120313AA0065
:100C98007508AB007608AC00080077080319592ED0
:100CA800760875047404031D6E2E0030F4000030BD
:100CB800F5000030F6000800013083120313A0008D
:100CC8002008F70701300310F60CF50CF40CFF3E72
:100CD800031D672EFE30760503198B2E602E01301A
:100CE80083120313A0002008F7070130F40700302F
:100CF80003180130F507003003180130F6070130FA
:100D08000310F60CF50CF40CFF3E031D842EFF3087
:100D1800760503199A2E732E0130F702013003105D
:100D2800F40DF50DF60DFF3E031D932EF51BA02EB9
:100D3800023077020318902E7718A82EFF30F4059A
:100D48007F30F505FF30F6050310F70C770883129E
:100D58000313A000A101A20110300310A00DA10DE2
:100D6800A20DFF3E031DB12E2008F4042108F5044E
:100D78002208F604780803190800F61708008312F9
:100D88000313B51FEC2E0030B9000030BA008030D4
:100D9800BB003309BC003409BD003509BE00BC0ADC
:100DA8000319BD0A0319BE0A3C08B9073D08031810
:100DB8003D0FDF2EE02EBA073E0803183E0FE52E42
:100DC800E62EBB073908B3003A08B4003B08B50063
:100DD800B81F132F0030B9000030BA008030BB00B4
:100DE8003609BC003709BD003809BE00BC0A031922
:100DF800BD0A0319BE0A3C08B9073D0803183D0F90
:100E0800062F072FBA073E0803183E0F0C2F0D2F89
:100E1800BB073908B6003A08B7003B08B80080306D
:100E2800B5068030B80638083502031D08003708B3
:100E38003402031D08003608330208000A128A1516
:100E48009F270A128A1183120313A201A301230800
:100E5800803AFF0080307F02031D342F0C302202BD
:100E6800031808000330F9007908F400831203130B
:100E780022080A128A158E270A128A11A03E8400B7
:100E8800831380010330F9007908F40083120313F7
:100E980022080A128A158E270A128A11013EA03EDC
:100EA8008400831380010330F9007908F400831269
:100EB800031322080A128A158E270A128A11023E83
:100EC800A03E840083138001013083120313A2071C
:100ED8000318A30A0030A3072B2FF500FB30F400FA
:100EE80074088312031388055F30F6000030F7009A
:100EF800F71B9A2FFE30F4007408880576087507EA
:100F0800F400740884008317000803198D2F8814CF
:100F1800912FFD30F400740888050814FF30F60797
:100F28000318F70AFF30F707F71F7E2F0815080088
:100F38000A128A15B1270A128A1100308312031384
:100F4800DF00E0000530E8006808E1000A30E90049
:100F58006908E2000F30EA006A08E3000A128A1101
:100F680082210A128A110A128A1129200A128A1168
:100F7800B72FF801F901741CC72F7608F807031872
:100F8800F90A7708F90701300310F60DF70DFF3E4F
:100F9800031DC82F01300310F50CF40CFF3E031D90
:100FA800CF2F74087504031DBF2F7908F500780842
:100FB800F4000800831203135B08DE005A08DD0002
:100FC8005708BF005808C0005908C1005408C2009B
:100FD8005508C3005608C4005D30DC005C08C50035
:100FE8000130C6000030C7000A128A11C723080062
:080FF80083160313881508009D
:101EBE0064008001840A0406031900340406602FAE
:101ECE000B1181017308FF0072088A0071088400EB
:101EDE00700E8300FE0E7E0E090083160313071686
:101EEE00871531309300803094002830831203130D
:101EFE0094000800831603138111073081048112A8
:101F0E000B118312031381018B168B170800F70038
:101F1E00F601771C962F7408F5007508F607031066
:101F2E00F40D0310F70C7708031D902F76080800A8
:101F3E008312031388018316031388010030F40003
:101F4E00F5006030F6000030F70090300A128A1566
:101F5E00C42708000A128A1574270A128A150A1253
:101F6E008A1122270A128A150A128A1581270A1245
:101F7E008A150A128A11FC27080083120313A00087
:101F8E002008F8007808A1000130F6020030031C8A
:101F9E00F703F702760A0319770A03190800740883
:101FAE00F800210884007808831780000130F800BB
:101FBE007808A107CB2FF900790883120313A60026
:101FCE00A701A8012608F4002708F5002808F60046
:101FDE008E30A9002908F700F8010A128A1151263D
:101FEE00740883120313A3007508A4007608A500D5
:021FFE000800D9
:00000001FF
