:060000000A128A11122809
:10000800FE00030EF0000408F1000A08F200831253
:1000180003137F08F3000A128A11A2280A128A1110
:10002800152883010A128A1143287F30F4007408C6
:100038008316031388057F30F400740883120313B2
:1000480088051A30F6005E30F5008630F400F40BAF
:100058002B28F50B2B28F60B2B28000083120313F3
:1000680088171A30F6005E30F5008630F400F40B7D
:100078003B28F50B3B28F60B3B2800001F280A12EB
:100088008A1175200A128A110030F400F500F60171
:100098007D3083120313A0002008F700FF30A10071
:1000A8002108F8000A128A1161200A128A110A121C
:1000B8008A1119200A128A1112288316031311149F
:1000C80083128C1D64288C11023093008C1D6A28C1
:1000D8008C1183160313111583128C1D70288C1133
:1000E80008000A128A1195200A128A110A128A1126
:1000F800B3200A128A110A128A1188200A128A1158
:100108000A128A11AF2008008316031381110730E1
:10011800810481120B118312031381018B168B1733
:1001280008008316031307168715313093008030B3
:100138009400283083120313940008000B118101E6
:100148007308FF0072088A0071088400700E83002B
:10015800FE0E7E0E09008316031308160800080019
:00000001FF
