:060000000A128A11122809
:10000800FE00030E83120313D8000408D9000A085F
:10001800DA007F08DB000A128A11D52B0A128A112E
:100028001528E201E301E401E5018313A03084000F
:10003800B8300A128A11C4250A128A110A128A11C2
:10004800CC250A128A11DC000A128A11CD250A125F
:100058008A11DD000A128A11CE250A128A11DE00E1
:100068000A128A11CF250A128A11DF000A128A1190
:10007800D0250A128A11E0000A128A11D125E1005E
:1000880083010A128A11D22D780883120313A00063
:100098007908A1007A08A2000310210D220DA300FF
:1000A8002308A6007B08A0007C08A1007D08A20008
:1000B8000310210D220DA3002308A500260803190B
:1000C800712825082602031878282603FF3A2507F1
:1000D800A00019302002031C78287B08F8007C084F
:1000E800F9007D08FA000800250803190800260809
:1000F8002502031887282503FF3A2607A000193090
:100108002002031808000630A0002008A400FA1BEB
:10011800A417FD1B2417F917FF30F805FF30F90560
:100128000030FA05FC17FF30FB05FF30FC050030F6
:10013800FD05250826020318C72801300310FB0D0A
:10014800FC0DFD0DFF3E031DA2280130A502250868
:1001580026060319C2280130A40224080739031906
:10016800C228A12801300310FA0CF90CF80CFF3E44
:10017800031DB7280130A0002008A6072608250679
:100188000319F028B628260825020318F02801309C
:100198000310F80DF90DFA0DFF3E031DCC280130B0
:1001A800A602250826060319EC280130A402240813
:1001B80007390319EC28CB2801300310FD0CFC0C7F
:1001C800FB0CFF3E031DE1280130A0002008A50715
:1001D80026082506031DE028A41F0229FF30F8067B
:1001E800FF30F906FF30FA060130F807003003182F
:1001F8000130F907003003180130FA07241F1429C9
:10020800FF30FB06FF30FC06FF30FD060130FB0720
:10021800003003180130FC07003003180130FD07D7
:10022800A4017808FB07790803110318790A031D4C
:10023800FC077A08031103187A0A031DFD07FD1F3E
:100248003729FF30FB06FF30FC06FF30FD06013082
:10025800FB07003003180130FC0700300318013099
:10026800FD07A401A40A7B08F0007C08F1007D08C2
:10027800F2002608A0002008F3002408A1002108A5
:10028800F4000A128A1146247008F8007108F9006F
:100298007208FA00080083120313C701C80148084E
:1002A800803ABF003E08803A3F02031D5D293D08A1
:1002B800470203187529831203134708BF003F0735
:1002C8003C07C0004008840083130008A03E840057
:1002D8008001800A0130C7070318C80A0030C80720
:1002E8005329A0300A128A1111250A128A110030E6
:1002F80083120313C1000030C2000030C30041085C
:10030800AA004208AB004308AC000030F8007A307D
:10031800F9004430FA003608FB003708FC003808BA
:10032800FD000A128A114C220A128A1178088312D7
:100338000313AD007908AE007A08AF000A128A11DB
:10034800B2240A128A110318CE2907308312031324
:10035800C0007D30BF00BF0BAF29C00BAF290030F4
:10036800F8008030F9003F30FA0083120313410887
:10037800FB004208FC004308FD000A128A114820CD
:100388000A128A11780883120313C1007908C2007F
:100398007A08822983120313C901CA014A08803ADC
:1003A800BF003E08803A3F02031DDC293D08490290
:1003B8000318F329831203134908BF003F073C07BA
:1003C800C0004008840083130008A03E8400800118
:1003D8000130C9070318CA0A0030CA07D229A03059
:1003E8000A128A1111250A128A1100308312031386
:1003F800C4000030C5000030C6004408AA00450803
:10040800AB004608AC000030F8007A30F900443000
:10041800FA003908FB003A08FC003B08FD000A1204
:100428008A114C220A128A11780883120313AD002C
:100438007908AE007A08AF000A128A11B2240A12AB
:100448008A1103180800073083120313C0007D3097
:10045800BF00BF0B2D2AC00B2D2A0030F8008030BA
:10046800F9003F30FA00831203134408FB004508E3
:10047800FC004608FD000A128A1148200A128A1157
:10048800780883120313C4007908C5007A08002A83
:10049800780883120313A0007908A1007A08A20043
:1004A8000310210D220DA3002308A4002408031D16
:1004B800642A0030F8000030F9000030FA00080023
:1004C8007B08A0007C08A1007D08A2000310210D74
:1004D800220DA3002308A9002908031D7A2A003049
:1004E800F8000030F9000030FA00080029087B3EC7
:1004F800A0002008A4077808A0007908A1007A08BD
:10050800A20010300310A20CA10CA00CFF3E031D8A
:10051800862A2008A3002308A9007B08A0007C08DD
:10052800A1007D08A20010300310A20CA10CA00CA1
:10053800FF3E031D982A2008A3002308A90680303F
:10054800A0002008A905F917FC17FF30FB05FF30AC
:10055800FC050030FD050030A5000030A600003085
:10056800A7000730A0002008A800781CC92A7B082B
:10057800A5077C08031103187C0A031DA6077D083C
:10058800031103187D0A031DA70701300310FA0C95
:10059800F90CF80CFF3E031DCA2A01300310FB0DAD
:1005A800FC0DFD0DFF3E031DD22A0130A802031DDC
:1005B800B92A0930A0002008A800781CF12A7B0875
:1005C800A5077C08031103187C0A031DA6077D08EC
:1005D800031103187D0A031DA70701300310FA0C45
:1005E800F90CF80CFF3E031DF22A01300310A70C8A
:1005F800A60CA50CFF3E031DFA2A0130A802031D14
:10060800E12A2508F0002608F1002708F20024084E
:10061800A0002008F3002908A1002108F4000A120C
:100628008A1146247008F8007108F9007208FA0067
:100638000800831203132308A6002408A70025082E
:10064800A8000310270D280DA9002908AE002E08C0
:10065800031D352B0030A0000030A1000030A2009F
:1006680008002008A6002108A7002208A8000310F7
:10067800270D280DA9002908AF002F08031D4B2BB3
:100688000030A0000030A1000030A20008000030B7
:10069800AB000030AC000030AD0089302F07A60059
:1006A8002608AE022308A6002408A7002508A800EB
:1006B80010300310A80CA70CA60CFF3E031D5D2BE1
:1006C8002608A9002908AF002008A6002108A700CD
:1006D8002208A80010300310A80CA70CA60CFF3E97
:1006E800031D6F2B2608A9002908AF068030A60035
:1006F8002608AF05A417FF30A305FF30A405003076
:10070800A505A117FF30A005FF30A1050030A205FF
:100718001830A6002608AA0001300310AB0DAC0D56
:10072800AD0DFF3E031D912B22082502031DA22BB0
:1007380021082402031DA22B20082302031CAF2B2F
:100748002008A3022108031C210FA4022208031C6D
:10075800220AA5022B1401300310A30DA40DA50D28
:10076800FF3E031DB02B0130AA02031D902B2B085E
:10077800F0002C08F1002D08F2002E08A60026082B
:10078800F3002F08A7002708F4000A128A1146244C
:10079800700883120313A0007108A1007208A20058
:1007A80008000B11810164086504031DE12B8817FB
:1007B8000130E4000030E500E72B7F30D600560812
:1007C8008805E401E5011230CB008330CC003A30D3
:1007D800CD006208D60056075C3E840083130008EB
:1007E800F800840A0008F9000A128A113C250A1246
:1007F8008A11780883120313A0007908A1007A08E7
:10080800A2000030A3008030A4003F30A5000A12E7
:100818008A111D230A128A11831203132008CE009D
:100828002108CF002208D0006308D2006208D10056
:100838000A128A117B250A128A118312031363088C
:10084800D7006208D600E20A0319E30A5708803A7B
:10085800FF0080307F02031D332C02305602031C38
:10086800392C83120313E201E301831203135B089B
:10087800FF005A088A0059088400580E8300FE0EAB
:100888007E0E0900730803194E2C72087104700457
:10089800031D612C0030F0000030F1000030F20040
:1008A80008000130F5007508F30701300310F20C59
:1008B800F10CF00CFF3E031D5A2CFE307205031993
:1008C8007C2C552C0130F5007508F3070130F00732
:1008D800003003180130F107003003180130F20727
:1008E80001300310F20CF10CF00CFF3E031D752CC7
:1008F800FF30720503198B2C662C0130F30201308E
:100908000310F00DF10DF20DFF3E031D842CF11BB9
:10091800912C023073020318812C7318992CFF3024
:10092800F0057F30F105FF30F2050310F30C730872
:10093800F500F601F70110300310F50DF60DF70D6F
:10094800FF3E031DA02C7508F0047608F104770813
:10095800F204740803190800F2170800831203133D
:10096800AC1FDB2C0030B0000030B1008030B2008A
:100978002A09B3002B09B4002C09B500B30A0319DE
:10098800B40A0319B50A3308B00734080318340F3A
:10099800CE2CCF2CB10735080318350FD42CD52C05
:1009A800B2073008AA003108AB003208AC00AF1F0C
:1009B800022D0030B0000030B1008030B2002D09A7
:1009C800B3002E09B4002F09B500B30A0319B40AFD
:1009D8000319B50A3308B00734080318340FF52C87
:1009E800F62CB10735080318350FFB2CFC2CB20781
:1009F8003008AD003108AE003208AF008030AC06D8
:100A08008030AF062F082C02031D08002E082B0289
:100A1800031D08002D082A020800F100FB30F00031
:100A280070088312031388051730F2000030F300B2
:100A3800F31B3A2DFE30F000700888057208710724
:100A4800F000700884008313000803192D2D881402
:100A5800312DFD30F000700888050814FF30F207CA
:100A68000318F30AFF30F307F31F1E2D08150800BB
:100A7800FD01F91F462DF809F909F80A0319F90AC1
:100A8800FD01FD0A7808F0007908F100F2018E30C6
:100A9800FB007B08F3007D08FC007C08F4000A12C8
:100AA8008A1146247008F8007108F9007208FA00E3
:100AB800080083160313BD003D08BC003C08BE00B7
:100AC8000130BA020030031CBB03BB023A0A031907
:100AD8003B0A031908003808BC003E0884003C089B
:100AE800831380000130BC003C08BE07642D8312CC
:100AF80003135208D5005108D4004E08B6004F0819
:100B0800B7005008B8004B08B9004C08BA004D08A7
:100B1800BB005430D3005308BC000130BD00003086
:100B2800BE000A128A114F2108008312031388019C
:100B38008316031388010030B800B9001830BA00D2
:100B48000030BB00A0300A128A115D250800831608
:100B5800031381110730810481120B1183120313CF
:100B680081018B168B1708000A128A11AB250A120D
:100B78008A110A128A119925831603138815080009
:100B880064008001840A0406031900340406C52D94
:100B9800053400340A340034283400340A128A1127
:080BA800B8250A128A11D72DAD
:00000001FF
